:020000020000FC
:100000000FEF04B905B900E007B908B926B12370AC
:10001000203039F0213089F02230D9F0233029F115
:10002000F5CF1AE00FEF05B90E94410000E005B9D5
:100030000E9441001A95B1F7E9CF1AE00FEF05B918
:100040000E94490000E005B90E9449001A95B1F7E5
:10005000DDCF1AE00FEF05B90E94510000E005B9AD
:100060000E9451001A95B1F7D1CF1AE00FEF05B9F0
:100070000E94410000E005B90E9441001A95B1F7C5
:10008000C5CF06E01AEF00001A95E9F70A95D1F7F7
:10009000089503E01AEF00001A95E9F70A95D1F7E1
:1000A000089501E01AEF00001A95E9F70A95D1F7D3
:0200B0000895B1
:00000001FF
